{
  "_format": "hh-sol-artifact-1",
  "contractName": "RabbitsCollection",
  "sourceName": "contracts/RabbitsCollection.sol",
  "abi": [
    {
      "inputs": [
        {
          "internalType": "address",
          "name": "_tokenAddress",
          "type": "address"
        },
        {
          "internalType": "string",
          "name": "_baseUrl",
          "type": "string"
        }
      ],
      "stateMutability": "nonpayable",
      "type": "constructor"
    },
    {
      "anonymous": false,
      "inputs": [
        {
          "indexed": true,
          "internalType": "address",
          "name": "owner",
          "type": "address"
        },
        {
          "indexed": true,
          "internalType": "address",
          "name": "approved",
          "type": "address"
        },
        {
          "indexed": true,
          "internalType": "uint256",
          "name": "tokenId",
          "type": "uint256"
        }
      ],
      "name": "Approval",
      "type": "event"
    },
    {
      "anonymous": false,
      "inputs": [
        {
          "indexed": true,
          "internalType": "address",
          "name": "owner",
          "type": "address"
        },
        {
          "indexed": true,
          "internalType": "address",
          "name": "operator",
          "type": "address"
        },
        {
          "indexed": false,
          "internalType": "bool",
          "name": "approved",
          "type": "bool"
        }
      ],
      "name": "ApprovalForAll",
      "type": "event"
    },
    {
      "anonymous": false,
      "inputs": [
        {
          "indexed": true,
          "internalType": "address",
          "name": "from",
          "type": "address"
        },
        {
          "indexed": true,
          "internalType": "address",
          "name": "to",
          "type": "address"
        },
        {
          "indexed": true,
          "internalType": "uint256",
          "name": "tokenId",
          "type": "uint256"
        }
      ],
      "name": "Transfer",
      "type": "event"
    },
    {
      "inputs": [
        {
          "internalType": "address",
          "name": "to",
          "type": "address"
        },
        {
          "internalType": "uint256",
          "name": "tokenId",
          "type": "uint256"
        }
      ],
      "name": "approve",
      "outputs": [],
      "stateMutability": "nonpayable",
      "type": "function"
    },
    {
      "inputs": [
        {
          "internalType": "address",
          "name": "owner",
          "type": "address"
        }
      ],
      "name": "balanceOf",
      "outputs": [
        {
          "internalType": "uint256",
          "name": "",
          "type": "uint256"
        }
      ],
      "stateMutability": "view",
      "type": "function"
    },
    {
      "inputs": [
        {
          "internalType": "uint256",
          "name": "tokenId",
          "type": "uint256"
        }
      ],
      "name": "getApproved",
      "outputs": [
        {
          "internalType": "address",
          "name": "",
          "type": "address"
        }
      ],
      "stateMutability": "view",
      "type": "function"
    },
    {
      "inputs": [
        {
          "internalType": "address",
          "name": "owner",
          "type": "address"
        },
        {
          "internalType": "address",
          "name": "operator",
          "type": "address"
        }
      ],
      "name": "isApprovedForAll",
      "outputs": [
        {
          "internalType": "bool",
          "name": "",
          "type": "bool"
        }
      ],
      "stateMutability": "view",
      "type": "function"
    },
    {
      "inputs": [],
      "name": "mint",
      "outputs": [],
      "stateMutability": "nonpayable",
      "type": "function"
    },
    {
      "inputs": [
        {
          "internalType": "address",
          "name": "_address",
          "type": "address"
        }
      ],
      "name": "mintedForUser",
      "outputs": [
        {
          "internalType": "uint256[]",
          "name": "",
          "type": "uint256[]"
        }
      ],
      "stateMutability": "view",
      "type": "function"
    },
    {
      "inputs": [],
      "name": "name",
      "outputs": [
        {
          "internalType": "string",
          "name": "",
          "type": "string"
        }
      ],
      "stateMutability": "view",
      "type": "function"
    },
    {
      "inputs": [
        {
          "internalType": "uint256",
          "name": "tokenId",
          "type": "uint256"
        }
      ],
      "name": "ownerOf",
      "outputs": [
        {
          "internalType": "address",
          "name": "",
          "type": "address"
        }
      ],
      "stateMutability": "view",
      "type": "function"
    },
    {
      "inputs": [
        {
          "internalType": "address",
          "name": "from",
          "type": "address"
        },
        {
          "internalType": "address",
          "name": "to",
          "type": "address"
        },
        {
          "internalType": "uint256",
          "name": "tokenId",
          "type": "uint256"
        }
      ],
      "name": "safeTransferFrom",
      "outputs": [],
      "stateMutability": "nonpayable",
      "type": "function"
    },
    {
      "inputs": [
        {
          "internalType": "address",
          "name": "from",
          "type": "address"
        },
        {
          "internalType": "address",
          "name": "to",
          "type": "address"
        },
        {
          "internalType": "uint256",
          "name": "tokenId",
          "type": "uint256"
        },
        {
          "internalType": "bytes",
          "name": "_data",
          "type": "bytes"
        }
      ],
      "name": "safeTransferFrom",
      "outputs": [],
      "stateMutability": "nonpayable",
      "type": "function"
    },
    {
      "inputs": [
        {
          "internalType": "address",
          "name": "operator",
          "type": "address"
        },
        {
          "internalType": "bool",
          "name": "approved",
          "type": "bool"
        }
      ],
      "name": "setApprovalForAll",
      "outputs": [],
      "stateMutability": "nonpayable",
      "type": "function"
    },
    {
      "inputs": [
        {
          "internalType": "bytes4",
          "name": "interfaceId",
          "type": "bytes4"
        }
      ],
      "name": "supportsInterface",
      "outputs": [
        {
          "internalType": "bool",
          "name": "",
          "type": "bool"
        }
      ],
      "stateMutability": "view",
      "type": "function"
    },
    {
      "inputs": [],
      "name": "symbol",
      "outputs": [
        {
          "internalType": "string",
          "name": "",
          "type": "string"
        }
      ],
      "stateMutability": "view",
      "type": "function"
    },
    {
      "inputs": [
        {
          "internalType": "uint256",
          "name": "tokenId",
          "type": "uint256"
        }
      ],
      "name": "tokenURI",
      "outputs": [
        {
          "internalType": "string",
          "name": "",
          "type": "string"
        }
      ],
      "stateMutability": "view",
      "type": "function"
    },
    {
      "inputs": [
        {
          "internalType": "address",
          "name": "from",
          "type": "address"
        },
        {
          "internalType": "address",
          "name": "to",
          "type": "address"
        },
        {
          "internalType": "uint256",
          "name": "tokenId",
          "type": "uint256"
        }
      ],
      "name": "transferFrom",
      "outputs": [],
      "stateMutability": "nonpayable",
      "type": "function"
    }
  ],
  "bytecode": "0x60a060405260016006556103e86007553480156200001c57600080fd5b50604051620031c5380380620031c5833981810160405281019062000042919062000273565b6040518060400160405280600781526020017f52616262697473000000000000000000000000000000000000000000000000008152506040518060400160405280600381526020017f52425400000000000000000000000000000000000000000000000000000000008152508160009080519060200190620000c69291906200013a565b508060019080519060200190620000df9291906200013a565b5050508060089080519060200190620000fa9291906200013a565b508173ffffffffffffffffffffffffffffffffffffffff1660808173ffffffffffffffffffffffffffffffffffffffff1660601b8152505050506200048b565b828054620001489062000396565b90600052602060002090601f0160209004810192826200016c5760008555620001b8565b82601f106200018757805160ff1916838001178555620001b8565b82800160010185558215620001b8579182015b82811115620001b75782518255916020019190600101906200019a565b5b509050620001c79190620001cb565b5090565b5b80821115620001e6576000816000905550600101620001cc565b5090565b600062000201620001fb84620002f6565b620002cd565b9050828152602081018484840111156200021a57600080fd5b6200022784828562000360565b509392505050565b600081519050620002408162000471565b92915050565b600082601f8301126200025857600080fd5b81516200026a848260208601620001ea565b91505092915050565b600080604083850312156200028757600080fd5b600062000297858286016200022f565b925050602083015167ffffffffffffffff811115620002b557600080fd5b620002c38582860162000246565b9150509250929050565b6000620002d9620002ec565b9050620002e78282620003cc565b919050565b6000604051905090565b600067ffffffffffffffff82111562000314576200031362000431565b5b6200031f8262000460565b9050602081019050919050565b6000620003398262000340565b9050919050565b600073ffffffffffffffffffffffffffffffffffffffff82169050919050565b60005b838110156200038057808201518184015260208101905062000363565b8381111562000390576000848401525b50505050565b60006002820490506001821680620003af57607f821691505b60208210811415620003c657620003c562000402565b5b50919050565b620003d78262000460565b810181811067ffffffffffffffff82111715620003f957620003f862000431565b5b80604052505050565b7f4e487b7100000000000000000000000000000000000000000000000000000000600052602260045260246000fd5b7f4e487b7100000000000000000000000000000000000000000000000000000000600052604160045260246000fd5b6000601f19601f8301169050919050565b6200047c816200032c565b81146200048857600080fd5b50565b60805160601c612d1b620004aa60003960006106760152612d1b6000f3fe608060405234801561001057600080fd5b50600436106100f55760003560e01c80636352211e11610097578063b1412bb011610066578063b1412bb014610270578063b88d4fde146102a0578063c87b56dd146102bc578063e985e9c5146102ec576100f5565b80636352211e146101d657806370a082311461020657806395d89b4114610236578063a22cb46514610254576100f5565b8063095ea7b3116100d3578063095ea7b3146101785780631249c58b1461019457806323b872dd1461019e57806342842e0e146101ba576100f5565b806301ffc9a7146100fa57806306fdde031461012a578063081812fc14610148575b600080fd5b610114600480360381019061010f9190611d21565b61031c565b6040516101219190612212565b60405180910390f35b6101326103fe565b60405161013f919061222d565b60405180910390f35b610162600480360381019061015d9190611d73565b610490565b60405161016f9190612152565b60405180910390f35b610192600480360381019061018d9190611cbc565b610515565b005b61019c61062d565b005b6101b860048036038101906101b39190611bb6565b61078a565b005b6101d460048036038101906101cf9190611bb6565b6107ea565b005b6101f060048036038101906101eb9190611d73565b61080a565b6040516101fd9190612152565b60405180910390f35b610220600480360381019061021b9190611b51565b6108bc565b60405161022d919061244f565b60405180910390f35b61023e610974565b60405161024b919061222d565b60405180910390f35b61026e60048036038101906102699190611c80565b610a06565b005b61028a60048036038101906102859190611b51565b610a1c565b60405161029791906121f0565b60405180910390f35b6102ba60048036038101906102b59190611c05565b610bc8565b005b6102d660048036038101906102d19190611d73565b610c2a565b6040516102e3919061222d565b60405180910390f35b61030660048036038101906103019190611b7a565b610d08565b6040516103139190612212565b60405180910390f35b60007f80ac58cd000000000000000000000000000000000000000000000000000000007bffffffffffffffffffffffffffffffffffffffffffffffffffffffff1916827bffffffffffffffffffffffffffffffffffffffffffffffffffffffff191614806103e757507f5b5e139f000000000000000000000000000000000000000000000000000000007bffffffffffffffffffffffffffffffffffffffffffffffffffffffff1916827bffffffffffffffffffffffffffffffffffffffffffffffffffffffff1916145b806103f757506103f682610d9c565b5b9050919050565b60606000805461040d906126ad565b80601f0160208091040260200160405190810160405280929190818152602001828054610439906126ad565b80156104865780601f1061045b57610100808354040283529160200191610486565b820191906000526020600020905b81548152906001019060200180831161046957829003601f168201915b5050505050905090565b600061049b82610e06565b6104da576040517f08c379a00000000000000000000000000000000000000000000000000000000081526004016104d1906123af565b60405180910390fd5b6004600083815260200190815260200160002060009054906101000a900473ffffffffffffffffffffffffffffffffffffffff169050919050565b60006105208261080a565b90508073ffffffffffffffffffffffffffffffffffffffff168373ffffffffffffffffffffffffffffffffffffffff161415610591576040517f08c379a00000000000000000000000000000000000000000000000000000000081526004016105889061240f565b60405180910390fd5b8073ffffffffffffffffffffffffffffffffffffffff166105b0610e72565b73ffffffffffffffffffffffffffffffffffffffff1614806105df57506105de816105d9610e72565b610d08565b5b61061e576040517f08c379a00000000000000000000000000000000000000000000000000000000081526004016106159061230f565b60405180910390fd5b6106288383610e7a565b505050565b6103486006541115610674576040517f08c379a000000000000000000000000000000000000000000000000000000000815260040161066b9061228f565b60405180910390fd5b7f000000000000000000000000000000000000000000000000000000000000000073ffffffffffffffffffffffffffffffffffffffff166323b872dd33306007546040518463ffffffff1660e01b81526004016106d39392919061216d565b602060405180830381600087803b1580156106ed57600080fd5b505af1158015610701573d6000803e3d6000fd5b505050506040513d601f19601f820116820180604052508101906107259190611cf8565b610764576040517f08c379a000000000000000000000000000000000000000000000000000000000815260040161075b9061232f565b60405180910390fd5b61077033600654610f33565b6006600081548092919061078390612710565b9190505550565b61079b610795610e72565b82610f51565b6107da576040517f08c379a00000000000000000000000000000000000000000000000000000000081526004016107d19061242f565b60405180910390fd5b6107e583838361102f565b505050565b61080583838360405180602001604052806000815250610bc8565b505050565b6000806002600084815260200190815260200160002060009054906101000a900473ffffffffffffffffffffffffffffffffffffffff169050600073ffffffffffffffffffffffffffffffffffffffff168173ffffffffffffffffffffffffffffffffffffffff1614156108b3576040517f08c379a00000000000000000000000000000000000000000000000000000000081526004016108aa9061236f565b60405180910390fd5b80915050919050565b60008073ffffffffffffffffffffffffffffffffffffffff168273ffffffffffffffffffffffffffffffffffffffff16141561092d576040517f08c379a00000000000000000000000000000000000000000000000000000000081526004016109249061234f565b60405180910390fd5b600360008373ffffffffffffffffffffffffffffffffffffffff1673ffffffffffffffffffffffffffffffffffffffff168152602001908152602001600020549050919050565b606060018054610983906126ad565b80601f01602080910402602001604051908101604052809291908181526020018280546109af906126ad565b80156109fc5780601f106109d1576101008083540402835291602001916109fc565b820191906000526020600020905b8154815290600101906020018083116109df57829003601f168201915b5050505050905090565b610a18610a11610e72565b838361128b565b5050565b606060008060065490506000600190505b81811015610a93578473ffffffffffffffffffffffffffffffffffffffff16610a558261080a565b73ffffffffffffffffffffffffffffffffffffffff161415610a80578280610a7c90612710565b9350505b8080610a8b90612710565b915050610a2d565b506000808367ffffffffffffffff811115610ad7577f4e487b7100000000000000000000000000000000000000000000000000000000600052604160045260246000fd5b604051908082528060200260200182016040528015610b055781602001602082028036833780820191505090505b5090506000600190505b83811015610bbb578673ffffffffffffffffffffffffffffffffffffffff16610b378261080a565b73ffffffffffffffffffffffffffffffffffffffff161415610ba85780828481518110610b8d577f4e487b7100000000000000000000000000000000000000000000000000000000600052603260045260246000fd5b6020026020010181815250508280610ba490612710565b9350505b8080610bb390612710565b915050610b0f565b5080945050505050919050565b610bd9610bd3610e72565b83610f51565b610c18576040517f08c379a0000000000000000000000000000000000000000000000000000000008152600401610c0f9061242f565b60405180910390fd5b610c24848484846113f8565b50505050565b6060610c3582610e06565b610c74576040517f08c379a0000000000000000000000000000000000000000000000000000000008152600401610c6b906123ef565b60405180910390fd5b6000610c7e611454565b90506000815111610c9e5760405180602001604052806000815250610d00565b80610ca8846114e6565b6040518060400160405280600481526020017f2e706e6700000000000000000000000000000000000000000000000000000000815250604051602001610cf093929190612121565b6040516020818303038152906040525b915050919050565b6000600560008473ffffffffffffffffffffffffffffffffffffffff1673ffffffffffffffffffffffffffffffffffffffff16815260200190815260200160002060008373ffffffffffffffffffffffffffffffffffffffff1673ffffffffffffffffffffffffffffffffffffffff16815260200190815260200160002060009054906101000a900460ff16905092915050565b60007f01ffc9a7000000000000000000000000000000000000000000000000000000007bffffffffffffffffffffffffffffffffffffffffffffffffffffffff1916827bffffffffffffffffffffffffffffffffffffffffffffffffffffffff1916149050919050565b60008073ffffffffffffffffffffffffffffffffffffffff166002600084815260200190815260200160002060009054906101000a900473ffffffffffffffffffffffffffffffffffffffff1673ffffffffffffffffffffffffffffffffffffffff1614159050919050565b600033905090565b816004600083815260200190815260200160002060006101000a81548173ffffffffffffffffffffffffffffffffffffffff021916908373ffffffffffffffffffffffffffffffffffffffff160217905550808273ffffffffffffffffffffffffffffffffffffffff16610eed8361080a565b73ffffffffffffffffffffffffffffffffffffffff167f8c5be1e5ebec7d5bd14f71427d1e84f3dd0314c0f7b2291e5b200ac8c7c3b92560405160405180910390a45050565b610f4d828260405180602001604052806000815250611693565b5050565b6000610f5c82610e06565b610f9b576040517f08c379a0000000000000000000000000000000000000000000000000000000008152600401610f92906122ef565b60405180910390fd5b6000610fa68361080a565b90508073ffffffffffffffffffffffffffffffffffffffff168473ffffffffffffffffffffffffffffffffffffffff16148061101557508373ffffffffffffffffffffffffffffffffffffffff16610ffd84610490565b73ffffffffffffffffffffffffffffffffffffffff16145b8061102657506110258185610d08565b5b91505092915050565b8273ffffffffffffffffffffffffffffffffffffffff1661104f8261080a565b73ffffffffffffffffffffffffffffffffffffffff16146110a5576040517f08c379a000000000000000000000000000000000000000000000000000000000815260040161109c906123cf565b60405180910390fd5b600073ffffffffffffffffffffffffffffffffffffffff168273ffffffffffffffffffffffffffffffffffffffff161415611115576040517f08c379a000000000000000000000000000000000000000000000000000000000815260040161110c906122af565b60405180910390fd5b6111208383836116ee565b61112b600082610e7a565b6001600360008573ffffffffffffffffffffffffffffffffffffffff1673ffffffffffffffffffffffffffffffffffffffff168152602001908152602001600020600082825461117b91906125c3565b925050819055506001600360008473ffffffffffffffffffffffffffffffffffffffff1673ffffffffffffffffffffffffffffffffffffffff16815260200190815260200160002060008282546111d2919061253c565b92505081905550816002600083815260200190815260200160002060006101000a81548173ffffffffffffffffffffffffffffffffffffffff021916908373ffffffffffffffffffffffffffffffffffffffff160217905550808273ffffffffffffffffffffffffffffffffffffffff168473ffffffffffffffffffffffffffffffffffffffff167fddf252ad1be2c89b69c2b068fc378daa952ba7f163c4a11628f55a4df523b3ef60405160405180910390a4505050565b8173ffffffffffffffffffffffffffffffffffffffff168373ffffffffffffffffffffffffffffffffffffffff1614156112fa576040517f08c379a00000000000000000000000000000000000000000000000000000000081526004016112f1906122cf565b60405180910390fd5b80600560008573ffffffffffffffffffffffffffffffffffffffff1673ffffffffffffffffffffffffffffffffffffffff16815260200190815260200160002060008473ffffffffffffffffffffffffffffffffffffffff1673ffffffffffffffffffffffffffffffffffffffff16815260200190815260200160002060006101000a81548160ff0219169083151502179055508173ffffffffffffffffffffffffffffffffffffffff168373ffffffffffffffffffffffffffffffffffffffff167f17307eab39ab6107e8899845ad3d59bd9653f200f220920489ca2b5937696c31836040516113eb9190612212565b60405180910390a3505050565b61140384848461102f565b61140f848484846116f3565b61144e576040517f08c379a00000000000000000000000000000000000000000000000000000000081526004016114459061224f565b60405180910390fd5b50505050565b606060088054611463906126ad565b80601f016020809104026020016040519081016040528092919081815260200182805461148f906126ad565b80156114dc5780601f106114b1576101008083540402835291602001916114dc565b820191906000526020600020905b8154815290600101906020018083116114bf57829003601f168201915b5050505050905090565b6060600082141561152e576040518060400160405280600181526020017f3000000000000000000000000000000000000000000000000000000000000000815250905061168e565b600082905060005b6000821461156057808061154990612710565b915050600a826115599190612592565b9150611536565b60008167ffffffffffffffff8111156115a2577f4e487b7100000000000000000000000000000000000000000000000000000000600052604160045260246000fd5b6040519080825280601f01601f1916602001820160405280156115d45781602001600182028036833780820191505090505b5090505b60008514611687576001826115ed91906125c3565b9150600a856115fc9190612759565b6030611608919061253c565b60f81b818381518110611644577f4e487b7100000000000000000000000000000000000000000000000000000000600052603260045260246000fd5b60200101907effffffffffffffffffffffffffffffffffffffffffffffffffffffffffffff1916908160001a905350600a856116809190612592565b94506115d8565b8093505050505b919050565b61169d838361188a565b6116aa60008484846116f3565b6116e9576040517f08c379a00000000000000000000000000000000000000000000000000000000081526004016116e09061224f565b60405180910390fd5b505050565b505050565b60006117148473ffffffffffffffffffffffffffffffffffffffff16611a58565b1561187d578373ffffffffffffffffffffffffffffffffffffffff1663150b7a0261173d610e72565b8786866040518563ffffffff1660e01b815260040161175f94939291906121a4565b602060405180830381600087803b15801561177957600080fd5b505af19250505080156117aa57506040513d601f19601f820116820180604052508101906117a79190611d4a565b60015b61182d573d80600081146117da576040519150601f19603f3d011682016040523d82523d6000602084013e6117df565b606091505b50600081511415611825576040517f08c379a000000000000000000000000000000000000000000000000000000000815260040161181c9061224f565b60405180910390fd5b805181602001fd5b63150b7a0260e01b7bffffffffffffffffffffffffffffffffffffffffffffffffffffffff1916817bffffffffffffffffffffffffffffffffffffffffffffffffffffffff191614915050611882565b600190505b949350505050565b600073ffffffffffffffffffffffffffffffffffffffff168273ffffffffffffffffffffffffffffffffffffffff1614156118fa576040517f08c379a00000000000000000000000000000000000000000000000000000000081526004016118f19061238f565b60405180910390fd5b61190381610e06565b15611943576040517f08c379a000000000000000000000000000000000000000000000000000000000815260040161193a9061226f565b60405180910390fd5b61194f600083836116ee565b6001600360008473ffffffffffffffffffffffffffffffffffffffff1673ffffffffffffffffffffffffffffffffffffffff168152602001908152602001600020600082825461199f919061253c565b92505081905550816002600083815260200190815260200160002060006101000a81548173ffffffffffffffffffffffffffffffffffffffff021916908373ffffffffffffffffffffffffffffffffffffffff160217905550808273ffffffffffffffffffffffffffffffffffffffff16600073ffffffffffffffffffffffffffffffffffffffff167fddf252ad1be2c89b69c2b068fc378daa952ba7f163c4a11628f55a4df523b3ef60405160405180910390a45050565b600080823b905060008111915050919050565b6000611a7e611a798461248f565b61246a565b905082815260208101848484011115611a9657600080fd5b611aa184828561266b565b509392505050565b600081359050611ab881612c89565b92915050565b600081359050611acd81612ca0565b92915050565b600081519050611ae281612ca0565b92915050565b600081359050611af781612cb7565b92915050565b600081519050611b0c81612cb7565b92915050565b600082601f830112611b2357600080fd5b8135611b33848260208601611a6b565b91505092915050565b600081359050611b4b81612cce565b92915050565b600060208284031215611b6357600080fd5b6000611b7184828501611aa9565b91505092915050565b60008060408385031215611b8d57600080fd5b6000611b9b85828601611aa9565b9250506020611bac85828601611aa9565b9150509250929050565b600080600060608486031215611bcb57600080fd5b6000611bd986828701611aa9565b9350506020611bea86828701611aa9565b9250506040611bfb86828701611b3c565b9150509250925092565b60008060008060808587031215611c1b57600080fd5b6000611c2987828801611aa9565b9450506020611c3a87828801611aa9565b9350506040611c4b87828801611b3c565b925050606085013567ffffffffffffffff811115611c6857600080fd5b611c7487828801611b12565b91505092959194509250565b60008060408385031215611c9357600080fd5b6000611ca185828601611aa9565b9250506020611cb285828601611abe565b9150509250929050565b60008060408385031215611ccf57600080fd5b6000611cdd85828601611aa9565b9250506020611cee85828601611b3c565b9150509250929050565b600060208284031215611d0a57600080fd5b6000611d1884828501611ad3565b91505092915050565b600060208284031215611d3357600080fd5b6000611d4184828501611ae8565b91505092915050565b600060208284031215611d5c57600080fd5b6000611d6a84828501611afd565b91505092915050565b600060208284031215611d8557600080fd5b6000611d9384828501611b3c565b91505092915050565b6000611da88383612103565b60208301905092915050565b611dbd816125f7565b82525050565b6000611dce826124d0565b611dd881856124fe565b9350611de3836124c0565b8060005b83811015611e14578151611dfb8882611d9c565b9750611e06836124f1565b925050600181019050611de7565b5085935050505092915050565b611e2a81612609565b82525050565b6000611e3b826124db565b611e45818561250f565b9350611e5581856020860161267a565b611e5e81612846565b840191505092915050565b6000611e74826124e6565b611e7e8185612520565b9350611e8e81856020860161267a565b611e9781612846565b840191505092915050565b6000611ead826124e6565b611eb78185612531565b9350611ec781856020860161267a565b80840191505092915050565b6000611ee0603283612520565b9150611eeb82612857565b604082019050919050565b6000611f03601c83612520565b9150611f0e826128a6565b602082019050919050565b6000611f26601983612520565b9150611f31826128cf565b602082019050919050565b6000611f49602483612520565b9150611f54826128f8565b604082019050919050565b6000611f6c601983612520565b9150611f7782612947565b602082019050919050565b6000611f8f602c83612520565b9150611f9a82612970565b604082019050919050565b6000611fb2603883612520565b9150611fbd826129bf565b604082019050919050565b6000611fd5601283612520565b9150611fe082612a0e565b602082019050919050565b6000611ff8602a83612520565b915061200382612a37565b604082019050919050565b600061201b602983612520565b915061202682612a86565b604082019050919050565b600061203e602083612520565b915061204982612ad5565b602082019050919050565b6000612061602c83612520565b915061206c82612afe565b604082019050919050565b6000612084602983612520565b915061208f82612b4d565b604082019050919050565b60006120a7602f83612520565b91506120b282612b9c565b604082019050919050565b60006120ca602183612520565b91506120d582612beb565b604082019050919050565b60006120ed603183612520565b91506120f882612c3a565b604082019050919050565b61210c81612661565b82525050565b61211b81612661565b82525050565b600061212d8286611ea2565b91506121398285611ea2565b91506121458284611ea2565b9150819050949350505050565b60006020820190506121676000830184611db4565b92915050565b60006060820190506121826000830186611db4565b61218f6020830185611db4565b61219c6040830184612112565b949350505050565b60006080820190506121b96000830187611db4565b6121c66020830186611db4565b6121d36040830185612112565b81810360608301526121e58184611e30565b905095945050505050565b6000602082019050818103600083015261220a8184611dc3565b905092915050565b60006020820190506122276000830184611e21565b92915050565b600060208201905081810360008301526122478184611e69565b905092915050565b6000602082019050818103600083015261226881611ed3565b9050919050565b6000602082019050818103600083015261228881611ef6565b9050919050565b600060208201905081810360008301526122a881611f19565b9050919050565b600060208201905081810360008301526122c881611f3c565b9050919050565b600060208201905081810360008301526122e881611f5f565b9050919050565b6000602082019050818103600083015261230881611f82565b9050919050565b6000602082019050818103600083015261232881611fa5565b9050919050565b6000602082019050818103600083015261234881611fc8565b9050919050565b6000602082019050818103600083015261236881611feb565b9050919050565b600060208201905081810360008301526123888161200e565b9050919050565b600060208201905081810360008301526123a881612031565b9050919050565b600060208201905081810360008301526123c881612054565b9050919050565b600060208201905081810360008301526123e881612077565b9050919050565b600060208201905081810360008301526124088161209a565b9050919050565b60006020820190508181036000830152612428816120bd565b9050919050565b60006020820190508181036000830152612448816120e0565b9050919050565b60006020820190506124646000830184612112565b92915050565b6000612474612485565b905061248082826126df565b919050565b6000604051905090565b600067ffffffffffffffff8211156124aa576124a9612817565b5b6124b382612846565b9050602081019050919050565b6000819050602082019050919050565b600081519050919050565b600081519050919050565b600081519050919050565b6000602082019050919050565b600082825260208201905092915050565b600082825260208201905092915050565b600082825260208201905092915050565b600081905092915050565b600061254782612661565b915061255283612661565b9250827fffffffffffffffffffffffffffffffffffffffffffffffffffffffffffffffff038211156125875761258661278a565b5b828201905092915050565b600061259d82612661565b91506125a883612661565b9250826125b8576125b76127b9565b5b828204905092915050565b60006125ce82612661565b91506125d983612661565b9250828210156125ec576125eb61278a565b5b828203905092915050565b600061260282612641565b9050919050565b60008115159050919050565b60007fffffffff0000000000000000000000000000000000000000000000000000000082169050919050565b600073ffffffffffffffffffffffffffffffffffffffff82169050919050565b6000819050919050565b82818337600083830152505050565b60005b8381101561269857808201518184015260208101905061267d565b838111156126a7576000848401525b50505050565b600060028204905060018216806126c557607f821691505b602082108114156126d9576126d86127e8565b5b50919050565b6126e882612846565b810181811067ffffffffffffffff8211171561270757612706612817565b5b80604052505050565b600061271b82612661565b91507fffffffffffffffffffffffffffffffffffffffffffffffffffffffffffffffff82141561274e5761274d61278a565b5b600182019050919050565b600061276482612661565b915061276f83612661565b92508261277f5761277e6127b9565b5b828206905092915050565b7f4e487b7100000000000000000000000000000000000000000000000000000000600052601160045260246000fd5b7f4e487b7100000000000000000000000000000000000000000000000000000000600052601260045260246000fd5b7f4e487b7100000000000000000000000000000000000000000000000000000000600052602260045260246000fd5b7f4e487b7100000000000000000000000000000000000000000000000000000000600052604160045260246000fd5b6000601f19601f8301169050919050565b7f4552433732313a207472616e7366657220746f206e6f6e20455243373231526560008201527f63656976657220696d706c656d656e7465720000000000000000000000000000602082015250565b7f4552433732313a20746f6b656e20616c7265616479206d696e74656400000000600082015250565b7f436f6c6c656374696f6e20616c7265616479206d696e74656400000000000000600082015250565b7f4552433732313a207472616e7366657220746f20746865207a65726f2061646460008201527f7265737300000000000000000000000000000000000000000000000000000000602082015250565b7f4552433732313a20617070726f766520746f2063616c6c657200000000000000600082015250565b7f4552433732313a206f70657261746f7220717565727920666f72206e6f6e657860008201527f697374656e7420746f6b656e0000000000000000000000000000000000000000602082015250565b7f4552433732313a20617070726f76652063616c6c6572206973206e6f74206f7760008201527f6e6572206e6f7220617070726f76656420666f7220616c6c0000000000000000602082015250565b7f4661696c656420746f207472616e736665720000000000000000000000000000600082015250565b7f4552433732313a2062616c616e636520717565727920666f7220746865207a6560008201527f726f206164647265737300000000000000000000000000000000000000000000602082015250565b7f4552433732313a206f776e657220717565727920666f72206e6f6e657869737460008201527f656e7420746f6b656e0000000000000000000000000000000000000000000000602082015250565b7f4552433732313a206d696e7420746f20746865207a65726f2061646472657373600082015250565b7f4552433732313a20617070726f76656420717565727920666f72206e6f6e657860008201527f697374656e7420746f6b656e0000000000000000000000000000000000000000602082015250565b7f4552433732313a207472616e73666572206f6620746f6b656e2074686174206960008201527f73206e6f74206f776e0000000000000000000000000000000000000000000000602082015250565b7f4552433732314d657461646174613a2055524920717565727920666f72206e6f60008201527f6e6578697374656e7420746f6b656e0000000000000000000000000000000000602082015250565b7f4552433732313a20617070726f76616c20746f2063757272656e74206f776e6560008201527f7200000000000000000000000000000000000000000000000000000000000000602082015250565b7f4552433732313a207472616e736665722063616c6c6572206973206e6f74206f60008201527f776e6572206e6f7220617070726f766564000000000000000000000000000000602082015250565b612c92816125f7565b8114612c9d57600080fd5b50565b612ca981612609565b8114612cb457600080fd5b50565b612cc081612615565b8114612ccb57600080fd5b50565b612cd781612661565b8114612ce257600080fd5b5056fea26469706673582212200180213eba0b1ac62d38daeb0e916240d0b442c2730e82ed0cc7035133bc963464736f6c63430008040033",
  "linkReferences": {},
  "deployedLinkReferences": {}
}